S014000046696E616C50726F6A6563742E737265634F
S113000071C00000F8C300001AC400003EC4000020
S113001061C4000086C0000084C0000082C00000EB
S113002080C0000029C200007AC400007AC0000029
S113003078C000008CC2000074C0000072C00000D0
S113004070C00000BCC300006CC000006AC00000A7
S113005068C0000066C0000064C0000062C0000008
S113006060C000005EC000005CC000005AC0000018
S113007058C0000056C0000054C0000052C0000028
S113008050C000004EC000004CC000004AC0000038
S113009048C0000046C0000044C0000042C0000048
S11300A040C000003EC000003CC000003AC0000058
S11300B038C0000036C0000034C0000032C0000068
S11300C030C000002EC000002CC000002AC0000078
S11300D028C0000026C0000024C0000022C0000088
S11300E020C0000011241FBECFEFD1E2DEBFCDBF80
S11300F000E00CBF12E0A0E0B2E0E4EEF9E000E0C2
S11301000BBF02C007900D92A630B107D9F722E0C9
S1130110A6E0B2E001C01D92A431B207E1F7E5D236
S11301205FC40BC29DD1982F9A70E9F4982F9970EF
S113013099F0982F967031F0982F9370B1F482FD56
S113014016C021C0982F9770A1F0982F937099F43E
S113015082FF13C084E008958D7089F48AD18130C0
S113016081F480E0089586E0089581E0089582E0B6
S1130170089587E0089583E0089587E0089585E071
S1130180089587E00895982F977011F787E00895F0
S11301900F931F93CF93C82F8B0162D18B7059F0AB
S11301A0C11104C0B80180E0C4D005C0C13019F445
S11301B0B80181E0BED0B6DFCF911F910F910895B1
S11301C04FD18B7009F4FCDFADCF0895CF93C82FC6
S11301D047D1982F9970993039F48770873021F47A
S11301E0EFDF66E08C2F65D09DDFCF910895CF932C
S11301F0C82F36D1982F9970993039F4867086308B
S113020021F4DEDF67E08C2F54D08CDFCF9108958A
S1130210CF93DF931F92CDB7DEB78FEF8093640047
S11302208093650080916100833069F08FB7898382
S1130230F89489815F9350E85093610053E05093A0
S113024061005F918FBF0F90DF91CF9108958091EE
S113025001028630B1F48091070221E030E0082EDB
S113026002C0220F331F0A94E2F78695869586957D
S113027090E0AC01440F551FFA01E80FF91F20A3C9
S113028008958730A9F48091080221E030E0082E17
S113029002C0220F331F0A94E2F78695869586954D
S11302A090E0AC01440F551FFA01E80FF91F20A399
S11302B00895CF93DF93C82FD62F843049F447E2B3
S11302C051E06DE070E080E090E08AD1F3D10AC0A3
S11302D0833041F447E251E063E070E080E090E075
S11302E07FD1E8D1809103028F3F41F0E0910A026F
S11302F0F0910B028FEF809303021995C0930002D3
S1130300D0930102DF91CF91089588E08093010298
S113031085E080930002DAD1809103028F3F41F09F
S1130320E0910A02F0910B028FEF8093030219957A
S11303300895F894811112C0E6E0F2E084E080832D
S113034081E0818392E0928397E093831582148203
S113035090E890936B008093680014C0813009F09A
S11303607EC0E6E0F2E08AE4808385E0818386E073
S1130370828383831582148280E480936B0081E0FE
S113038080936800E6E0F2E081E090E09C01018067
S113039002C0220F331F0A94E2F7028002C0880FC2
S11303A0991F0A94E2F7822BE081EA3458F0AE2FC9
S11303B0B0E0AA54B1099D01220F331FA20FB31F4D
S11303C0B39508C0AE2FB0E09D01220F331FA20FDA
S11303D0B31F9096982F909512962C911297922372
S11303E012969C93129711969C911197892B1196B2
S11303F08C938091090221E030E0082E02C0220F84
S1130400331F0A94E2F7EE0FEE0FEE0F8E0FE82F74
S1130410F0E0F695E795F695E795F695E795CF0123
S1130420880F991FE80FF91FB096822F809591814C
S1130430892381838281282B2283B8D07894809168
S113044003028F3F41F0E0910A02F0910B028FEF1B
S113045080930302199589E08093020256CF089590
S11304609091020280910102892B90910002892BC4
S113047008958091030208951F920F920FB60F9270
S113048011240BB60F922F933F934F935F936F9367
S11304907F938F939F93AF93BF93EF93FF93209199
S11304A0090230E0285F3F4FC901969587959695DC
S11304B08795969587958A3458F099278A54910997
S11304C0FC01EE0FFF1F8E0F9F1FFC01F39508C068
S11304D09927FC01EE0FFF1F8E0F9F1FFC01B096A2
S11304E040812770332781E090E002C0880F991F74
S11304F02A95E2F7842371F480910202893051F441
S113050080910302819580930302E0910A02F091A5
S11305100B021995FF91EF91BF91AF919F918F912C
S11305207F916F915F914F913F912F910F900BBEEF
S11305300F900FBE0F901F9018951F920F920FB639
S11305400F9211240F900FBE0F901F9018951F92B9
S11305500F920FB60F9211240BB60F922F933F9365
S11305604F935F936F937F938F939F93AF93BF93B7
S1130570EF93FF9380910E02882329F0E0910C02FF
S1130580F0910D021995FF91EF91BF91AF919F9159
S11305908F917F916F915F914F913F912F910F9028
S11305A00BBE0F900FBE0F901F90189580911002F4
S11305B0811115C080910F02811111C080910E022A
S11305C081110DC080E28093B60082E08093B00078
S11305D01092B1008093700081E08093100208951E
S11305E020911002222309F464C020910E022111EB
S11305F060C050930D0240930C0261302FEF7207DC
S11306008207920740F0209104022660209304029E
S113061020E034E042C061382FE77207810591057C
S113062030F026E02093040220E031E036C0613C43
S11306302FE372078105910540F0209104022460A4
S11306402093040220E830E028C0613E2FE17207C5
S11306508105910530F024E02093040220E430E089
S11306601CC0693F27E072078105910540F0209185
S1130670040222602093040220E230E00EC06F3FA7
S113068071058105910539F030F022E020930402D0
S113069028E030E002C021E030E040E050E07ED1CC
S11306A02150E3EBF0E020838081808181E080931E
S11306B00F02089580910F02882339F0809104027B
S11306C08093B10081E080930E02089580910E0220
S11306D081111092B10008950895813011F45C9A4B
S11306E008958F3F09F45C980895F6DF91DDF8943E
S11306F08FEF809369008FE08DBB82E08093680068
S113070080936C0091B1907F91B992B19F6092B93E
S113071010921302109212027894F89498E0909335
S1130720810023E537E0309389002093880080938B
S11307306F001092120210921302789414980C9A7B
S11307406DE673E080E024DD909113029923E1F3D8
S1130750909112029923C1F38630B1F39091110262
S11307609330C1F028F4913041F0923061F0ECCF35
S11307709430B9F09530E1F0E7CF22DD1092110208
S113078010921302E1CF84E021DD10921102109245
S11307901302DACF83E01ADD1092110210921302D1
S11307A0D3CF84E024DD1092110210921302CCCF37
S11307B083E01DDD1092110210921302C5CF1F9227
S11307C00F920FB60F9211240BB60F928F93EF93E3
S11307D0FF9381E080931202E1E8F0E08081887F5A
S11307E08083FF91EF918F910F900BBE0F900FBEFE
S11307F00F901F9018951F920F920FB60F9211240D
S11308000BB60F928F93EF93FF9381E080931102C5
S113081080931302109212021092850010928400A9
S1130820E1E8F0E0808182E08083FF91EF918F9195
S11308300F900BBE0F900FBE0F901F9018951F9234
S11308400F920FB60F9211240BB60F928F939F93B2
S1130850EF93FF9382E08093110291E0909313024F
S1130860109212021092850010928400E1E8F0E0E8
S113087090818083FF91EF919F918F910F900BBE98
S11308800F900FBE0F901F9018951F920F920FB6E6
S11308900F9211240BB60F928F93EF93FF9383E083
S11308A08093110281E0809313021092120210923D
S11308B0850010928400E1E8F0E0808182E080838A
S11308C0FF91EF918F910F900BBE0F900FBE0F9081
S11308D01F9018951F920F920FB60F9211240BB60A
S11308E00F928F93EF93FF9384E08093110281E042
S11308F080931302109212021092850010928400C9
S1130900E1E8F0E0808182E08083FF91EF918F91B4
S11309100F900BBE0F900FBE0F901F9018951F9253
S11309200F920FB60F9211240BB60F928F93EF9381
S1130930FF938091030180FD12C085E08093110232
S113094081E080931302109212021092850010929B
S11309508400E1E8F0E0808182E0808315C080912A
S1130960030180FD11C086E08093110281E0809331
S11309701302109212021092850010928400E1E892
S1130980F0E0808182E08083FF91EF918F910F905E
S11309900BBE0F900FBE0F901F901895A1E21A2E58
S11309A0AA1BBB1BFD010DC0AA1FBB1FEE1FFF1F0F
S11309B0A217B307E407F50720F0A21BB30BE40B5F
S11309C0F50B661F771F881F991F1A9469F76095A6
S11309D07095809590959B01AC01BD01CF01089560
S10709E0F894FFCFB5
S10909E405080BFF0100F1
S9030000FC
