:1000000071C0000081C000007FC000007DC0000002
:100010007BC0000079C0000077C0000075C0000000
:1000200073C0000071C000006FC000006DC0000010
:100030006BC000006AC0000067C0000065C000001F
:1000400063C0000061C000005FC000005DC0000030
:100050005BC0000059C0000057C0000055C0000040
:1000600053C0000051C000004FC000004DC0000050
:100070004BC0000049C0000047C0000045C0000060
:1000800043C0000041C000003FC000003DC0000070
:100090003BC0000039C0000037C0000035C0000080
:1000A00033C0000031C000002FC000002DC0000090
:1000B0002BC0000029C0000027C0000025C00000A0
:1000C00023C0000021C000001FC000001DC00000B0
:1000D0001BC0000019C0000017C0000015C00000C0
:1000E00013C0000011241FBECFEFD1E2DEBFCDBF91
:1000F00000E00CBF22E0A0E0B2E001C01D92A630FB
:10010000B207E1F753D05DC07BCF1F920F920FB6BD
:100110000F9211240BB60F922F938F939F93EF930F
:10012000FF932091010220FF1CC0E2E0F2E08081F9
:100130009181019791838083892B99F480910002AA
:1001400081608093000280910402909105020097E3
:1001500029F0909303028093020203C02E7F209324
:100160000102FF91EF919F918F912F910F900BBE04
:100170000F900FBE0F901F9018951092B60093EF3E
:100180009093B30092E09093B00097E09093B10009
:10019000882319F082E0809370000895B99B03C012
:1001A000B99A81E0089580E008950895FEDF80E027
:1001B000E4DF16980E9AC0E4F1DF8823E9F3C0B9B2
:0601C000FBCFF894FFCF15
:00000001FF
